:020000040800F2
:10000000D80A0020CD010008871B00082D18000821
:10001000851B000837030008992000080000000035
:100020000000000000000000000000008B1B000822
:100030003903000800000000891B00088D1B000820
:10004000E7010008E7010008E7010008E7010008F0
:10005000E7010008E7010008E7010008E7010008E0
:10006000E7010008E7010008E7010008E7010008D0
:10007000E7010008E7010008E7010008E7010008C0
:10008000E7010008E7010008E7010008E7010008B0
:10009000E7010008E7010008E7010008E7010008A0
:1000A000E7010008E7010008E7010008E701000890
:1000B000E7010008E7010008E7010008E701000880
:1000C000E7010008E7010008E7010008E701000870
:1000D000E701000861200008E7010008E7010008C7
:1000E000E7010008E7010008E7010008E701000850
:1000F000E7010008E7010008E7010008E701000840
:10010000E7010008E7010008E7010008E70100082F
:10011000E7010008E7010008E7010008E70100081F
:10012000E7010008E7010008E7010008E70100080F
:1001300000F002F800F03AF80AA090E8000C8244BF
:100140008344AAF10107DA4501D100F02FF8AFF29C
:10015000090EBAE80F0013F0010F18BFFB1A43F0A5
:1001600001031847A81F0000C81F0000103A24BF51
:1001700078C878C1FAD8520724BF30C830C144BF0C
:1001800004680C607047000000230024002500264E
:10019000103A28BF78C1FBD8520728BF30C148BFEA
:1001A0000B6070471FB51FBD10B510BD00F08AF879
:1001B0001146FFF7F7FF01F080FF00F0A8F803B445
:1001C000FFF7F2FF03BC00F0AFF8000009488047DA
:1001D00009480047FEE7FEE7FEE7FEE7FEE7FEE729
:1001E000FEE7FEE7FEE7FEE704480549054A064B41
:1001F00070470000091C000831010008D8040020E5
:10020000D80A0020D8060020D806002010B5203AD1
:10021000C0F00B80B1E81850203AA0E81850B1E8BF
:100220001850A0E81850BFF4F5AF5FEA027C24BF75
:10023000B1E81850A0E8185044BF18C918C0BDE86C
:1002400010405FEA827C24BF51F8043B40F8043B35
:1002500008BF7047D20728BF31F8023B48BF11F8EA
:10026000012B28BF20F8023B48BF00F8012B704744
:100270004FF0000200B5134694469646203922BF3F
:10028000A0E80C50A0E80C50B1F12001BFF4F7AF8A
:10029000090728BFA0E80C5048BF0CC05DF804EB6C
:1002A000890028BF40F8042B08BF704748BF20F8DA
:1002B000022B11F0804F18BF00F8012B70477047D8
:1002C00070477047754600F02BF8AE46050069464A
:1002D000534620F00700854618B020B5FFF784FF8D
:1002E000BDE820404FF000064FF000074FF0000837
:1002F0004FF0000B21F00701AC46ACE8C009ACE8B8
:10030000C009ACE8C009ACE8C0098D46704710B51B
:100310000446AFF300802046BDE81040FFF74FBF12
:10032000004870477404002001491820ABBEFEE766
:10033000260002007047FEE7704772B6FEE710B570
:1003400090F821100022022905D00421816380F851
:100350002020012010BD01680B6823F00E030B6004
:1003600001680B6823F001030B6090F84030C46B08
:10037000012101FA03F3636080F8211080F8202046
:10038000104610BD2DE9F05F90F8211000240229DD
:1003900003D004218163012485E001680A6822F00A
:1003A0000E020A6001680A6822F001020A603F4EEC
:1003B0003E4FB215DFF8F4C0DFF8F090DFF8ECA0A4
:1003C000DFF8E8B0DFF8E4E00168783F13011502D8
:1003D000ACF1640CA9F15009AAF13C0AABF1280B6D
:1003E000AEF1140E4FF48018B14227D9B9420ED0A5
:1003F000614512D049451DD0514518D0594518D0F6
:10040000714501D1424615E0294EB14201D1012288
:1004100010E0274E1436B14201D110220AE0244EDA
:100420002836B14206D0224A3C32914201D11A46C6
:1004300000E02A461E49091F0A602BE0B94213D08A
:10044000614517D0494522D051451DD059451DD091
:10045000714501D142461AE0B14202D14FF080729B
:1004600015E0134EB14201D1012210E0104E1436B6
:10047000B14201D110220AE00D4E2836B14206D019
:100480000B4A3C32914201D11A4600E02A46074904
:1004900080394A60012180F82110002180F8201065
:1004A000416B01B188472046BDE8F09F80000240C3
:1004B000080402402DE9F84FDFF8C8910024A9F1A3
:1004C000040B23460F2709F1040AABF1040ED1E017
:1004D0000125A54006EA0502AA4276D1DFF8A8C1A7
:1004E0004E68A6EB0C0866452BD00DDC032E34D0ED
:1004F00005DC36B3012E19D0022E2FD11BE0112EB0
:1005000016D0122E2AD119E0B8F5881F19D006DCB2
:10051000B8F5803F15D0B8F5801F1FD111E0B8F5B0
:10052000001F0ED0B8F5041F18D10AE0CB6815E003
:10053000CB681B1D12E0CB6808330FE0CB680C338F
:100540000CE08B682BB1012B4FF0080303D0456101
:1005500004E0042302E0056100E00023FF2A01D843
:10056000064601E000F104064FEA840501D9A5F131
:100570002005D6F8008007FA05FC28EA0C0803FAE3
:1005800005F548EA0508C6F800804D68ED0070D50D
:100590003E4DAE6946F00106AE61AD6924F003063A
:1005A00005F0010500953A4D06EB050CDCF8085006
:1005B000A607360F07FA06F825EA0805DFF8D48003
:1005C000404503D14FF0000825E052E0DFF8C88035
:1005D000404502D14FF001081DE0DFF8C0804045E2
:1005E00002D14FF0020816E0DFF8B480404502D196
:1005F0004FF003080FE0DFF8AC80404502D14FF028
:10060000040808E0DFF8A080404502D14FF005085B
:1006100001E04FF0060808FA06F848EA0508CCF8A9
:1006200008804D68D9F80060ED024D4601D51643AB
:1006300000E096432E604D68DAF80060AD02554642
:1006400001D5164300E096432E604D68DBF800604C
:10065000AD035D4601D5164300E096432E604D681C
:10066000DEF80060ED03754601D5164300E09643C1
:100670002E60641C0A681646E2407FF429AFBDE88C
:10068000F88F000008040140000011100010024023
:100690000000014000080140000C01400010014032
:1006A0000014014000180140001C01400AB1016122
:1006B00070470904FBE700000148806870470000AC
:1006C0000000002070B5040025D094F83D000025FE
:1006D00020B984F83C50204600F0B8F8242084F873
:1006E0003D002068016821F0010101602068016877
:1006F00041F4004101602068016821F4004101607B
:1007000000F002FB4D4A6168914201D84C4900E07B
:100710004C49884201D2012070BD4B492368B0FB8F
:10072000F1F15E6826F03F060E435E606368934217
:1007300006D94FF4967359434FF47A73B1FBF3F132
:100740002368491C1E6A26F03F063143196261681E
:10075000914210D84900401EB0FBF1F2521CC2F386
:100760000B02042A01D2042022E0B0FBF1F0401C6D
:10077000C0F30B001CE0A268F2B301EBC10303EB72
:100780000116431EB3FBF6F35B1C43F480431B05C9
:1007900049D092B301EBC10202EB0111401EB0FB44
:1007A000F1F0401CC0F30B0040F4804040F40040E6
:1007B0002168CA694CF6FF739A431043C861D4E9B3
:1007C000071001432068026822F0C0021143016053
:1007D000D4E9030101432068826848F2FF339A4359
:1007E00011438160D4E9050108432168CA6822F0F9
:1007F000FF021043C86001E00EE016E020680168C7
:1008000041F0010101602564202084F83D0025634A
:1008100084F83E50002070BD01EB4106431EB3FB3F
:10082000F6F35B1CB3E70120C2E701EB4101401E78
:10083000B0FBF1F0401CC0F30B00B7E7A08601004D
:1008400080841E0000093D0040420F0010B586B0B4
:10085000002100910191029103910068134988429F
:1008600022D1134CA06940F00800A061A06969463C
:1008700000F0080004904FF44070009012200190A6
:10088000032003900B48FFF715FE0B48416841F029
:10089000E06141F002014160E06940F40010E06174
:1008A000E06900F40010049006B010BD0054004050
:1008B00000100240000C0140000001400248816825
:1008C000027811448160704700000020074810B58D
:1008D000016841F010010160032000F075F80F205D
:1008E00000F006F800F024F8002010BD00200240BF
:1008F00070B50D4D04464FF47A712878B1FBF0F0D5
:100900000A490968B1FBF0F000F0D4FB48B9102C9B
:1009100007D200222146501E00F036F800206C60FD
:1009200070BD012070BD0000000000200C00002000
:100930000C4808B5816941F001018161816901F0CC
:1009400001010091C16941F08051C161C06900F0AD
:10095000805000900448416821F0E06141F000714E
:10096000416008BD0010024000000140002809DB82
:1009700000F01F02012191404009800000F1E020B9
:10098000C0F8001170470000F0B40E4B1B680C4615
:10099000C3F30223C3F10705042D00D90425191D53
:1009A000072901D2002300E0DB1E012606FA05F12B
:1009B000491E214099409E40761E16403143F0BCAE
:1009C00001F06BBB0CED00E0064900F0070208687F
:1009D0004FF6FF03184040EA0220034A1043086024
:1009E000704700000CED00E00000FA052DE9F04131
:1009F00086B0040004D094F8A902002520B108E0D4
:100A0000012006B0BDE8F08184F8A852204600F02D
:100A10005BF8032084F8A902206801F034FB04F19C
:100A20001001142288466846FFF7F0FB94E80F0097
:100A300001F01CFB0227D0BB0021206801F02AFB3B
:100A4000002001260EE000BF00EB800104EBC10195
:100A500081F8296001F8280F401CCD700D614D61AF
:100A6000C0B28D6161688142EED8002012E000BF03
:100A700000EB800104EBC10181F8695181F8680144
:100A800081F86B51C1F87851C1F87C51401CC0B25B
:100A9000C1F8805161688142EAD814224146684613
:100AA000FFF7B4FB94E80F0001F0E4FA10B184F80A
:100AB000A972A5E784F8245084F8A962206801F09F
:100AC000D7FA00209DE7000008B500680649884273
:100AD00008D10648C16941F40001C161C06900F450
:100AE0000000009008BD0000005C004000100240C3
:100AF0002DE9F84305460078354CC00754D0E0692D
:100B00000026C00008D4E06940F08050E061E06950
:100B1000012600F0805000902E480168C90512D4CB
:100B20000168804641F480710160FFF7C5FD07460A
:100B300005E000BFFFF7C0FDC01B642823D8D8F82C
:100B40000000C005F6D5206A10F4407021D0A988B5
:100B500001F4407181421CD0206A1F49012220F417
:100B600040700A6000220A602062C00711D0FFF7BF
:100B7000A3FD074641F2883808E000BFFFF79CFD5F
:100B8000C11B414502D90320BDE8F883206A8007D4
:100B9000F4D5206A696820F44070084320621EB1D1
:100BA000E06920F08050E0612878800705D5606812
:100BB000A96820F44040084360602878C00605D545
:100BC0006068696920F48000084360600020DBE70A
:100BD0000010024000700040400442422DE9F047FE
:100BE0000F46050061D0434E306800F00700B84260
:100BF00009D2306820F0070038433060306800F0D8
:100C00000700B84251D128683B4C810712D54007F4
:100C100003D5606840F4E06060602878000703D581
:100C2000606840F4605060606068A96820F0F0007F
:100C3000084360602878C00728D06868012810D071
:100C40002168022810D0890700292EDA616821F076
:100C5000030101436160FFF72FFD804641F28839AF
:100C60000DE021688903EFE78901EDE7FFF724FD37
:100C7000A0EB0801494502D90320BDE8F087606870
:100C8000696800F00C00B0EB810FEFD1306800F024
:100C90000700B8420BD9306820F0070038433060B5
:100CA000306800F00700B84201D00120E5E728785D
:100CB000400705D56068E96820F4E060084360609B
:100CC0002878000706D56068296920F4605040EA5A
:100CD000C100606000F038F86168084AC1F3031190
:100CE000515CC8400649086006480068FFF700FEEE
:100CF0000020C2E70020024000100240F22000085D
:100D00000C000020040000200448054900684968E0
:100D1000044AC1F30221515CC84070470C00002016
:100D20000010024002210008044805490068496893
:100D3000044AC1F3C221515CC84070470C00002036
:100D400000100240022100080E4A51680E4801F0CE
:100D50000C03042B11D0082B0FD10C48C1F3834393
:100D6000C903C05C0AD55168084AC1F34041921ECC
:100D7000515C054A5043B0FBF1F0704704494843C9
:100D8000704700000010024000127A00E2200008C4
:100D900000093D002DE9F84F040070D02078C04DC7
:100DA000C00749D06868C0F38100012807D068688F
:100DB000C0F38100022809D16868C00306D52868FD
:100DC000800339D560680028E7D035E06068B0F569
:100DD000803F0BD010B1B0F5A02F11D0286820F4BF
:100DE00080302860286820F4802002E0286840F4E1
:100DF00080302860606890B1FFF75EFC06460AE02C
:100E0000286840F480202860F0E700BFFFF754FC1A
:100E1000801B642873D828688003F7D50CE0FFF79F
:100E20004BFC064605E000BFFFF746FC801B64282C
:100E3000F0D828688003F7D420789A4E80074FF0C6
:100E400001094FF0000839D5686810F00C0F07D081
:100E50006868C0F38100022809D16868C00306D41D
:100E60002868800714D52069012808D110E020697E
:100E7000B0B1C6F80090FFF71FFC074605E00AE195
:100E8000FFF71AFCC01B0228C4D828688007F7D5D2
:100E90002868616920F0F80040EAC10028600DE090
:100EA000C6F80080FFF708FC074604E0FFF704FCE3
:100EB000C01B022823D828688007F7D420780007B1
:100EC0002CD57948A169D9B1C0F80090FFF7F4FB9F
:100ED000074604E0FFF7F0FBC01B02280FD8686A42
:100EE0008007F7D571484FF4FA510068B0FBF1F074
:100EF000009000BF0098411E0091FAD20EE080E001
:100F0000C0F80080FFF7D8FB074604E0FFF7D4FBEA
:100F1000C01B022875D8686A8007F7D4207840077C
:100F200060D5E8690027C00008D4E86940F0805027
:100F3000E861E869012700F0805000905C48016892
:100F4000C90513D40168834641F480710160FFF73D
:100F5000B3FB824606E000BFFFF7AEFBA0EB0A0042
:100F600064284ED8DBF80000C005F5D5E0680128FC
:100F70000AD008B1052813D0286A20F001002862A1
:100F8000286A20F0040002E0286A40F0010028628C
:100F9000E06841F2883B98B1FFF78EFB82460BE098
:100FA000286A40F004002862EEE700BFFFF784FBE8
:100FB000A0EB0A0159455AD8286A8007F6D50CE0FB
:100FC000FFF77AFB824605E0FFF776FBA0EB0A010C
:100FD00059454CD8286A8007F6D41FB1E86920F03B
:100FE0008050E861E06988B36968C1F38101022932
:100FF00044D00228C6F8608004D0FFF75DFB0446A9
:1010000038E034E0FFF758FB074604E0FFF754FBF5
:10101000C01B02282BD828688001F7D4206AB0F5BD
:10102000803F05D16868A16820F4003008436860FB
:10103000D4E908010843696821F474110843686021
:10104000C6F86090FFF738FB044606E025E000BFD5
:10105000FFF732FB001B022809D828688001F7D56A
:101060001BE000BFFFF728FB001B022802D903206A
:10107000BDE8F88F28688001F4D40EE00128F7D08D
:101080006868226A00F48031914204D1616A00F4F8
:101090007010884201D00120EAE70020E8E7000054
:1010A0000010024000004242800442420C00002036
:1010B0000070004010B5401EB0F1807F01D30120C8
:1010C00010BD4FF0E02460610F21601700F0E5FFD4
:1010D0000020A06107202061002010BD70B590F8AD
:1010E0003C20012A2CD0012480F83C40022280F8C8
:1010F0003D2003685A689D6822F070060A683243F2
:101100005A60104B02689A420ED00F4B9A420BD095
:10111000B2F1804F08D00D4B9A4205D00C4B9A4249
:1011200002D00C4B9A4204D1496825F08003194340
:10113000916080F83D40002180F83C10084670BD69
:10114000022070BD002C014000340140000400402A
:1011500000080040000C004010B5040003D094F8D3
:101160003D0010B107E0012010BD002084F83C00D4
:10117000204600F01FF8022084F83D00211D206861
:1011800000F044FD012084F8460084F83E0084F815
:101190003F0084F8400084F8410084F8420084F85D
:1011A000430084F8440084F8450084F83D000020A2
:1011B00010BD000008B501680B48B1F1804F0BD09D
:1011C0000A4A914207D1C16941F00201C161C06977
:1011D00000F00200009008BDC16941F00101C16149
:1011E000C06900F00100F5E7001002400004004073
:1011F00070B5044690F83C000025012817D0012660
:1012000084F83C60022084F83D002068826822F067
:10121000770222F47F4282600868502838D00DDCC3
:1012200020284FD005DC90B3102811D14AE00220CD
:1012300070BD302846D040280AD13BE060282FD02E
:1012400070280DD0B0F5805F03D0B0F5005F12D0EC
:10125000012584F83D60002084F83C00284670BDDC
:10126000CB68D1E90121206800F016FD2068816873
:1012700041F0770109E0CB68D1E90121206800F055
:101280000BFD2068816841F480418160E1E719E04D
:10129000CA684968206800F0D3FD5021206806E044
:1012A000CA684968206800F0DCFD6021206800F011
:1012B000FDFCCEE7CA684968206800F0C1FD402106
:1012C0002068F4E7226801461046F0E710B586B0C2
:1012D0000021009101910291039102681B490224AF
:1012E0001B48B2F1804F23D01A4B9A421ED18A6913
:1012F00042F004028A618A6902F0040204928A6957
:1013000042F008028A618969039401F0080104919E
:10131000C021CDE900146946FFF7CCF80320CDE9E0
:10132000000469460C480394FFF7C4F806B010BDEA
:101330008A6942F004028A618969039401F0040118
:1013400004910F21CDE900146946EDE70010024039
:101350000008014000040040000C014070B5044644
:1013600090F83C0000260D4601280FD0012084F89B
:101370003C006AB1042A1DD0082A2FD00C2A3FD085
:101380000126002084F83C00304670BD022070BD6C
:10139000206800F093FC2068816941F008018161B8
:1013A0002068816921F004018161206881692A69CE
:1013B000114311E0206800F0B1FC2068816941F41C
:1013C000006181612068816921F480618161206808
:1013D00081692A6941EA02218161D2E7206800F02F
:1013E000D3FC2068C16941F00801C1612068C1696E
:1013F00021F00401C1612068C1692A69114311E02B
:10140000206800F0F5FC2068C16941F40061C16109
:101410002068C16921F48061C1612068C1692A69BD
:1014200041EA0221C161ACE710B5040003D094F891
:101430003D0010B107E0012010BD002084F83C0001
:10144000204600F01EF8022084F83D00211D20688F
:1014500000F0DCFB012084F8460084F83E0084F8AC
:101460003F0084F8400084F8410084F8420084F88A
:10147000430084F8440084F8450084F83D000020CF
:1014800010BD704770477047F8B50168044608689A
:10149000CA684B6910F00F0F4FF0000559D003F0E8
:1014A000010602F49077374365D0C10705D0D10516
:1014B00003D5616C41F001016164410705D5D9078D
:1014C00003D0616C41F002016164810705D5D90741
:1014D00003D0616C41F004016164010707D502F09B
:1014E0002001314303D0616C41F008016164616CFB
:1014F00000293AD0800604D5900602D5204600F097
:10150000F1FC20684069616CC0F38010090700D4C9
:1015100060B3204600F0BFFC20684069400621D53A
:101520002068143050E8001F21F0400140E800120C
:10153000002AF5D1E06BA8B16D494163E06BFEF77D
:1015400021FF002811D0E06B416B01B0BDE8F040F5
:10155000084783060FD593060DD52046BDE8F84011
:1015600000F0C0BC2046FFF78EFFF8BD2046FFF715
:101570008AFF6564F8BD266B2023012E7CD1C60648
:101580007AD5D60678D508684868009048694FF043
:101590000206400640D5E16B086840680004000C74
:1015A000E8D0A28D8242E5D9E085886920282DD037
:1015B00020680C3050E8001F21F4807140E80012D0
:1015C000002AF5D12068143050E8001F21F00101F5
:1015D00040E80012002AF5D12068143050E8001FBE
:1015E00021F0400140E80012002AF5D184F8423091
:1015F000256320680C3050E8001F21F0100140E8FE
:101600000012002AF5D1E06BFEF799FE6663A08D0B
:10161000E18D401A81B22AE0A08DE18D401A81B29D
:10162000E08D0028A6D00029A4D022680C3252E810
:10163000000F20F4907042E80007002FF5D12068D9
:10164000143050E8002F22F0010240E80027002F5C
:10165000F5D184F84230256320680C3050E8002F23
:1016600022F0100240E80023002BF5D166632046EB
:10167000FFF708FFF8BDFFE705062BD5150629D5AE
:1016800094F841002128F5D1A068B0F5805F01D120
:101690002069B0B1206A411C21622168007848604D
:1016A000E08C401E0004000CE084E3D12068C16897
:1016B00021F08001C1602068C16841F04001C16033
:1016C000D8E7206A0088C0F308004860206A801CC0
:1016D0002062E5E74006CDD55006CBD5CA68204646
:1016E00022F04002CA6084F8413000F09EF8C1E761
:1016F000871E000870B5040004D094F8410000254E
:1017000010B106E0012070BD84F84050204600F082
:1017100023F8242084F841002068C16821F4005196
:10172000C160204600F040FC2068016921F490412E
:1017300001612068416921F02A0141612068C16886
:1017400041F40051C1606564202084F8410084F8B0
:1017500042006563002070BD70B586B0002400941F
:1017600001940294039403682B482A4E0221032219
:101770000515B34229D1836943F4804383618369AA
:1017800003F480430493836943F004038361806915
:10179000224E00F0040004900802CDE900010392FB
:1017A00069463046FEF786FECDE90054694630466C
:1017B0000294FEF77FFE002201212520FFF7E4F8C6
:1017C0002520FFF7D3F806B070BD154EB342FAD10D
:1017D000C36943F48023C361C36903F48023049382
:1017E000836943F0080383618069CDE9005100F00B
:1017F0000800CDE903200B4D69462846FEF75AFE46
:10180000E814CDE90004694628460294FEF752FE2A
:10181000D9E70000003801400010024000080140F4
:1018200000480040000C014070477047FEE7000090
:101830002DE9F04786B000253248009501950295C4
:101840000395816941F010018161816901F0100106
:101850000491816941F020018161816901F02001D9
:101860000491816941F004018161816901F0040101
:101870000491816941F0080181618069DFF8888005
:1018800000F0080041F682540490002221464046B0
:10189000FEF70CFF012204214046FEF707FFDFF8A8
:1018A0006C90002204214846FEF700FFDFF860A09C
:1018B0000022F0215046FEF7F9FE009401AA01240F
:1018C000032682E8700069464046FEF7F3FD0427D0
:1018D000CDE90074CDE9024669464046FEF7EAFDCF
:1018E00001AA009782E8700069464846FEF7E2FDCB
:1018F000F0208DE8710069465046FEF7DBFD06B02A
:10190000BDE8F087001002400010014000140140C3
:10191000000C01400D4810B50B4901600C494160B5
:1019200000214FF440428160C0E9031241618161AE
:10193000C1610162FEF7C6FE002803D0BDE8104079
:10194000FEF7FBBC10BD000000540040100000205A
:10195000A086010010B58EB0002407940894099465
:101960000A940B941C2168460C94FEF781FC2948CC
:101970004FF0804101604721C0E901146321C0E9B3
:1019800003148461FFF7E8FB08B1FEF7D6FC4FF4BF
:101990008050079007A91F48FFF72AFC08B1FEF7FF
:1019A000CCFC1C48FFF740FD08B1FEF7C6FC0B94C9
:1019B0000BA918480C94FFF791FB08B1FEF7BDFC8A
:1019C0006020CDE900040294002269461148049485
:1019D000FFF7C4FC08B1FEF7B0FC042269460D48CD
:1019E000FFF7BCFC08B1FEF7A8FC082269460948CD
:1019F000FFF7B4FC08B1FEF7A0FC0C2269460548CD
:101A0000FFF7ACFC08B1FEF798FC0248FFF75EFC5C
:101A10000EB010BD6400002010B58EB000240794F5
:101A2000089409940A940B941C2168460C94FEF7C0
:101A30001FFC2A48284901604721C0E9011463219D
:101A4000C0E903148461FFF787FB08B1FEF775FC5A
:101A50004FF48050079007A92048FFF7C9FB08B151
:101A6000FEF76BFC1D48FFF7DFFC08B1FEF765FCD5
:101A70000B940BA919480C94FFF730FB08B1FEF743
:101A80005CFC6020CDE90004029400226946134802
:101A90000494FFF763FC08B1FEF74FFC042269468B
:101AA0000E48FFF75BFC08B1FEF747FC08226946C9
:101AB0000A48FFF753FC08B1FEF73FFC0C226946C9
:101AC0000648FFF74BFC08B1FEF737FC0348FFF769
:101AD000FDFB0EB010BD000000040040AC00002073
:101AE0000C4810B50A4901604FF4E1314160002112
:101AF00081600C22C160C0E904128161C161FFF7FD
:101B0000F9FD002803D0BDE81040FEF716BC10BD5B
:101B100000380140F40000200C4810B50A4901606B
:101B20004FF4E1314160002181600C22C160C0E9C5
:101B300004128161C161FFF7DDFD002803D0BDE81B
:101B40001040FEF7FABB10BD004800403C010020E9
:101B50000B4810B5094901600821416002218160EC
:101B600000218161C1610162FEF740FF002803D0BE
:101B7000BDE81040FEF7E1BB10BD0000005C004076
:101B800084010020FEE7FEE770477047FEF796BE2F
:101B900030B595B028216846FEF76AFB14210AA8E3
:101BA000FEF766FB18210FA8FEF762FB012108046F
:101BB000CDE900100024029402250491CDE90750DC
:101BC0004FF4E01009906846FFF7E4F808B172B6E8
:101BD000FEE70F20CDE90A054FF48060CDE90C4007
:101BE00002210AA80E94FEF7F9FF08B172B6FEE7CB
:101BF000102014940F900FA8FEF77AFF002801D050
:101C000072B6FEE715B030BD70470000F0B502684F
:101C10001C4B1D4D1D4E1E4F1E4C4FF0804C9842CC
:101C200009D0A04207D0604505D0A84203D0B042F9
:101C300001D0B84204D122F0700E4A6842EA0E0286
:101C4000984209D0A04207D0604505D0A84203D0F1
:101C5000B04201D0B84203D122F44075CA682A4389
:101C60004D6922F080022A4302608A68C2620A68D3
:101C70008262984201D0A04201D109690163012129
:101C80004161F0BD002C014000040040000800400C
:101C9000000C00400034014010B5846842EA032281
:101CA00024F47F440A432243826010BD826822F0FC
:101CB00070020A4342F0070181607047F0B5036A81
:101CC000026A22F00102026242688469124E24F024
:101CD00073050C682C4323F002058B682B430D4DD4
:101CE000A84201D0B04205D123F00807CB683B439E
:101CF00023F00403A84201D0B04205D14D6922F47B
:101D0000407215438A692A4342608461496841638D
:101D10000362F0BD002C014000340140F0B5026ABE
:101D2000036A23F010030362436884690D6824F496
:101D3000E64444EA05248D6822F0200242EA0512B6
:101D40000F4D104EA84201D0B04206D1CF6822F00C
:101D5000800242EA071222F04002A84201D0B042BB
:101D600007D14D6923F4406343EA85038D6943EA53
:101D7000850343608461496881630262F0BD0000AD
:101D8000002C014000340140F0B5026A036A23F4DC
:101D9000807303624368C46922F4007224F07305FF
:101DA0000C68124E2C438D6842EA05220E4DA84263
:101DB00001D0B04206D1CF6822F4006242EA072285
:101DC00022F48062A84201D0B04207D14D6923F4C9
:101DD000405343EA05138D6943EA05134360C46128
:101DE0004968C1630262F0BD002C0140003401402B
:101DF00030B5046A026A22F4805202624268C36902
:101E00000D6823F4E64343EA05238D6824F4005467
:101E100044EA0534084DA84202D0084DA84204D136
:101E20004D6922F4804242EA85124260C3614968EA
:101E30000164046230BD0000002C01400034014008
:101E400010B5036A046A24F001040462846924F072
:101E5000F00444EA021423F00A020A438461026295
:101E600010BD10B5036A046A24F01004046284698A
:101E700023F0A00324F4704444EA023243EA01113F
:101E80008261016210BD10B5406A0021C185C18424
:101E9000FFF7F9FA10BD01680C3151E8002F22F468
:101EA000907241E80023002BF5D10168143151E80C
:101EB000002F22F0010241E80023002BF5D1016B35
:101EC000012909D101680C3151E8002F22F01002DC
:101ED00041E80023002BF5D1202180F84210002199
:101EE0000163704708B590F84210222901D0022002
:101EF00008BD82684FF480539A4201D1016921B133
:101F0000816A9A421BD04AB10AE00268816A52682B
:101F1000C2F308020A80816A891C08E0026972B172
:101F20000268526802F07F020A70816A491C81626D
:101F3000C18D491E0904090CC18503D01BE002684C
:101F40005268F1E70168CA6822F02002CA6001689D
:101F5000CA6822F48072CA6001684A6922F00102EC
:101F60004A61202180F8421000214163026B012A5E
:101F700003D0FFF759FC002008BD016301680C3154
:101F800051E8002F22F0100241E80023002BF5D188
:101F900001680A68D20602D50A6849680091818DF5
:101FA000FFF770FAE7E7000070B5044600680169C2
:101FB000E26821F44051114301612169A06808439E
:101FC000616908432168CA6841F20C639A4302437D
:101FD000CA6020684169A26921F4407111434161DE
:101FE0001E492068884202D1FEF79EFE01E0FEF7FE
:101FF0008BFE00EBC00101EB0012606864218000E1
:10200000B2FBF0F3B3FBF1F36FF018067343B2FBCE
:10201000F0F5B2FBF0F605EB8305322303EB051573
:10202000B5FBF1F5B6FBF1F605F0F00505EB06158D
:10203000B2FBF0F6B2FBF0F0B0FBF1F06FF018027B
:10204000504306EB800003EB0010B0FBF1F0216879
:1020500000F00F002844886070BD00000038014087
:102060000148FFF711BA0000F4000020002070477B
:1020700000207047012120F8401F0021018081804D
:1020800001820846704730F8401F21F43F4101802B
:102090000020704700207047FEE70907090E00285E
:1020A00004DB00F1E02080F80014704700F00F001E
:1020B00000F1E02080F8141D7047FEF707FCFFF7E1
:1020C00067FDFFF7B5FBFFF745FCFFF709FDFFF7DD
:1020D00023FDFFF71FFCFFF79FFCFFF739FDFEE72D
:1020E000010202030405060708090A0B0C0D0E0F76
:1020F00010100000000000000000010203040607A9
:102100000809000000000102030400002C2100085F
:1021100000000020100000006C0100083C210008B5
:1021200010000020C80A000088010008010000001B
:0C21300010000000000000000024F4007B
:0400000508000131BD
:00000001FF
